{
  "contractName": "ASSETS",
  "abi": [
    {
      "constant": true,
      "inputs": [
        {
          "name": "",
          "type": "uint256"
        }
      ],
      "name": "assets",
      "outputs": [
        {
          "name": "price",
          "type": "uint256"
        },
        {
          "name": "name",
          "type": "string"
        },
        {
          "name": "ownerAddress",
          "type": "address"
        }
      ],
      "payable": false,
      "stateMutability": "view",
      "type": "function"
    },
    {
      "constant": true,
      "inputs": [],
      "name": "contractAddress",
      "outputs": [
        {
          "name": "",
          "type": "address"
        }
      ],
      "payable": false,
      "stateMutability": "view",
      "type": "function"
    },
    {
      "inputs": [],
      "payable": false,
      "stateMutability": "nonpayable",
      "type": "constructor"
    },
    {
      "constant": false,
      "inputs": [
        {
          "name": "tokenId",
          "type": "uint256"
        },
        {
          "name": "_ownerAddress",
          "type": "address"
        },
        {
          "name": "_price",
          "type": "uint256"
        },
        {
          "name": "_name",
          "type": "string"
        }
      ],
      "name": "createAsset",
      "outputs": [
        {
          "name": "",
          "type": "bool"
        }
      ],
      "payable": false,
      "stateMutability": "nonpayable",
      "type": "function"
    },
    {
      "constant": true,
      "inputs": [
        {
          "name": "tokenId",
          "type": "uint256"
        }
      ],
      "name": "getAsset",
      "outputs": [
        {
          "name": "",
          "type": "uint256"
        }
      ],
      "payable": false,
      "stateMutability": "view",
      "type": "function"
    }
  ],
  "bytecode": "0x608060405234801561001057600080fd5b50336000806101000a81548173ffffffffffffffffffffffffffffffffffffffff021916908373ffffffffffffffffffffffffffffffffffffffff160217905550610580806100606000396000f3fe608060405234801561001057600080fd5b506004361061004c5760003560e01c8063cf35bdd014610051578063eac8f5b814610132578063f087da3b14610174578063f6b4dfb41461027b575b600080fd5b61007d6004803603602081101561006757600080fd5b81019080803590602001909291905050506102c5565b60405180848152602001806020018373ffffffffffffffffffffffffffffffffffffffff1673ffffffffffffffffffffffffffffffffffffffff168152602001828103825284818151815260200191508051906020019080838360005b838110156100f55780820151818401526020810190506100da565b50505050905090810190601f1680156101225780820380516001836020036101000a031916815260200191505b5094505050505060405180910390f35b61015e6004803603602081101561014857600080fd5b81019080803590602001909291905050506103a7565b6040518082815260200191505060405180910390f35b6102616004803603608081101561018a57600080fd5b8101908080359060200190929190803573ffffffffffffffffffffffffffffffffffffffff16906020019092919080359060200190929190803590602001906401000000008111156101db57600080fd5b8201836020820111156101ed57600080fd5b8035906020019184600183028401116401000000008311171561020f57600080fd5b91908080601f016020809104026020016040519081016040528093929190818152602001838380828437600081840152601f19601f8201169050808301925050505050505091929192905050506103c7565b604051808215151515815260200191505060405180910390f35b61028361048a565b604051808273ffffffffffffffffffffffffffffffffffffffff1673ffffffffffffffffffffffffffffffffffffffff16815260200191505060405180910390f35b6001602052806000526040600020600091509050806000015490806001018054600181600116156101000203166002900480601f0160208091040260200160405190810160405280929190818152602001828054600181600116156101000203166002900480156103775780601f1061034c57610100808354040283529160200191610377565b820191906000526020600020905b81548152906001019060200180831161035a57829003601f168201915b5050505050908060020160009054906101000a900473ffffffffffffffffffffffffffffffffffffffff16905083565b600060016000838152602001908152602001600020600001549050919050565b600060405180606001604052808481526020018381526020018573ffffffffffffffffffffffffffffffffffffffff16815250600160008781526020019081526020016000206000820151816000015560208201518160010190805190602001906104339291906104af565b5060408201518160020160006101000a81548173ffffffffffffffffffffffffffffffffffffffff021916908373ffffffffffffffffffffffffffffffffffffffff16021790555090505060019050949350505050565b6000809054906101000a900473ffffffffffffffffffffffffffffffffffffffff1681565b828054600181600116156101000203166002900490600052602060002090601f016020900481019282601f106104f057805160ff191683800117855561051e565b8280016001018555821561051e579182015b8281111561051d578251825591602001919060010190610502565b5b50905061052b919061052f565b5090565b61055191905b8082111561054d576000816000905550600101610535565b5090565b9056fea165627a7a72305820dc71345a389da62397c34d91926e1b84cc839df1f8387f473e90f9c41fc4e6750029",
  "source": "pragma solidity ^0.5.0;\r\n\r\ncontract ASSETS {\r\n    address public contractAddress;\r\n    struct Asset {\r\n        uint price;\r\n        // address assetAddress;\r\n        string name;\r\n        address ownerAddress;\r\n    }\r\n\r\n    mapping(uint => Asset) public assets;\r\n\r\n    constructor() public {\r\n        contractAddress = msg.sender;\r\n }\r\n\r\n  function createAsset(uint tokenId,address _ownerAddress, uint _price, string memory _name) public returns (bool){\r\n    // Asset storage asset = assets[assetAddress];\r\n\r\n    assets[tokenId] = Asset({\r\n        price: _price,\r\n        name: _name,\r\n        ownerAddress: _ownerAddress\r\n    });\r\n    return true;\r\n    }\r\n\r\n    function getAsset(uint tokenId) public view returns (uint){\r\n        return assets[tokenId].price;\r\n    }\r\n\r\n\r\n}",
  "sourcePath": "C:/Users/nakendra.kumar/code/poc/truffle/contracts/ASSETS.sol",
  "compiler": {
    "name": "solc",
    "version": "0.5.8+commit.23d335f2.Emscripten.clang"
  },
  "schemaVersion": "3.0.16",
  "updatedAt": "2019-11-25T11:07:47.506Z",
  "devdoc": {
    "methods": {}
  },
  "userdoc": {
    "methods": {}
  }
}